{
  "contractName": "TodoList",
  "abi": [
    {
      "constant": true,
      "inputs": [],
      "name": "taskCount",
      "outputs": [
        {
          "name": "",
          "type": "uint256"
        }
      ],
      "payable": false,
      "stateMutability": "view",
      "type": "function",
      "signature": "0xb6cb58a5"
    }
  ],
  "bytecode": "0x608060405260008055348015601357600080fd5b50609e806100226000396000f3fe608060405260043610603f576000357c0100000000000000000000000000000000000000000000000000000000900463ffffffff168063b6cb58a5146044575b600080fd5b348015604f57600080fd5b506056606c565b6040518082815260200191505060405180910390f35b6000548156fea165627a7a723058206f992e5a9c1aead81e17d6c271a0ac40d8fbbb45227e010fd0e221ac3946c91e0029",
  "source": "// SPDX-License-Identifier: MIT\r\npragma solidity <0.9.0;\r\n\r\ncontract TodoList{\r\n    uint public taskCount = 0;\r\n}\r\n",
  "sourcePath": "C:/Users/priyanshu/OneDrive/Desktop/Desktop/Folders/web3/ETH_TO_DO/contracts/TodoList.sol",
  "compiler": {
    "name": "solc",
    "version": "0.5.0+commit.1d4f565a.Emscripten.clang"
  },
  "schemaVersion": "3.0.1",
  "updatedAt": "2023-03-28T20:40:19.472Z",
  "devdoc": {
    "methods": {}
  },
  "userdoc": {
    "methods": {}
  }
}